:020000040800F2
:100000000004002047010008D93900082D0D000820
:10001000B5390008490800085B56000800000000D8
:10002000000000000000000000000000DF52000897
:100030001D0B000800000000553A0008115500088B
:1000400067010008670100086701000867010008F0
:1000500067010008670100086701000867010008E0
:1000600067010008670100086701000867010008D0
:1000700067010008670100086701000867010008C0
:1000800067010008670100086701000867010008B0
:1000900067010008670100086701000867010008A0
:1000A0006701000867010008670100086701000890
:1000B0006701000867010008670100086701000880
:1000C0006701000867010008670100086701000870
:1000D00067010008615500086555000867010008C0
:1000E0006701000867010008670100086701000850
:1000F0006701000867010008670100086701000840
:1001000067010008713B00086701000867010008EB
:10011000670100086701000867010008670100081F
:10012000670100086701000867010008670100080F
:10013000DFF80CD000F076FB00480047096C00089F
:10014000E0E90020704708488047084981F30888A3
:1001500007480047FEE7FEE7FEE7FEE7FEE7FEE7AB
:10016000FEE7FEE7FEE7FEE745010008E0E90020C4
:100170003101000880EA010210B502F0004340009E
:1001800022D04A001FD0010E01EB1261C0F35600CD
:10019000C2F3560240F4000042F40002A0FB022029
:1001A00000047F39140400D0401C50EA124001D4EE
:1001B0004000491EC2B20C0604EBD010401C40089F
:1001C000802A02D003E0002010BD20F001000029A9
:1001D00000DA0020184310BD30B480EA010202F0BA
:1001E000004530F0004221F0004013D090B1C30D23
:1001F000D40DC2F31601C0F31600E41A41F4000155
:1002000040F400027D34914201D3641C00E04900B7
:10021000002C02DA30BC002070474FF400000023AD
:10022000914201D3891A034340084FEA4101F7D1B3
:1002300051B1914202D14FF0004105E002D24FF09E
:10024000010101E06FF0010103EBC450284430BC10
:1002500000F0CCB92DE9FE4F804681EA0300C00FC3
:100260000C46009021F0004123F00045B8EB02005D
:10027000A94105D24046214690461C460B460246FF
:1002800023F00040104347D0270DC7F30A00C3F303
:100290000A510290401A019040286BDAC3F3130010
:1002A00040F4801B0098924620B10023D2EB030A51
:1002B00063EB0B0B01985946C0F14002504600F029
:1002C00064F906460D4650465946019A00F07CF9FD
:1002D00010EB08006141002487EA115284EAE773B9
:1002E0001A4340D0009A62B3019A012A4FEA07529A
:1002F00015DC001B61EB02014FF0004202EA0752DD
:10030000CDE90042001C41F5801132462B4600F039
:10031000B3F903B0BDE8F08F40462146F9E7001B72
:1003200061EB0201001C41F5801300185B412018AD
:10033000A2F5001747EB030140EAD570B6196D41ED
:1003400011E06D084FEA360645EAC0754FEA0752DC
:10035000001B61EB0201001C41F5801149084FEAC6
:1003600030000019514132462B4603B0BDE8F04F32
:1003700000F073B90098012240000023D0EB020284
:1003800063EBE073009821464FEAE074B8EB00009D
:1003900061EB0401E9E783F000435BE781F0004192
:1003A00058E72DE9FE4F81EA030404F0004421F0F0
:1003B000004100944FF0000B23F0004350EA010489
:1003C0005ED052EA03045BD0C3F30A54C1F30A556A
:1003D0002C44A4F2F3340194A0FB0254C1F31301A2
:1003E00041F48011C3F3130343F4801301FB02446F
:1003F00000FB034E840A970A44EA815447EA835774
:10040000A4FB076802958D0A05FB07854FEA932C2C
:1004100004FB0C542705029D4FEA065847EA16379D
:10042000B5EB08056EEB070C870E920E47EA8117B5
:1004300042EA8312A7FB0201B6EB0B0164EB000456
:100440002B0D43EA0C335E1844EB1C50DA46514640
:10045000E7FB0201C5F313044FEA0B3343EA1453DD
:100460004FEA0432019C43EA0603A4F10C0402940F
:10047000009CCDE900B400F0FFF803B0BDE8F08FB8
:1004800000200146F9E796230022114600F0B7B894
:1004900020F00040C10DC0F3160040F400007F2999
:1004A00001DA00207047962903DCC1F19601C840AB
:1004B000704796398840704730B5041E71F10004CA
:1004C00004DB4FF00044404264EB0101141E73F161
:1004D000000405DB1C464FF00043524263EB04036B
:1004E000994208BF904230BD002801DBC0F10040B6
:1004F000002901DBC1F100418142704730B50B4654
:10050000014600202022012409E021FA02F59D4243
:1005100005D303FA02F5491B04FA02F52844151E17
:10052000A2F10102F1DC30BD2DE9F05F05460020AB
:1005300092469B4688460646814640241BE0284654
:1005400041464746224600F02FF853465A46C01A05
:10055000914110D311461846224600F016F82D1A84
:1005600067EB01084F4622460120002100F00DF8FC
:1005700017EB00094E41201EA4F10104DFDC4846C0
:1005800031462A464346BDE8F09F202A04DB203A44
:1005900000FA02F1002070479140C2F1200320FAD6
:1005A00003F3194390407047202A04DB203A21FAD4
:1005B00002F00021704721FA02F3D040C2F120027C
:1005C0009140084319467047202A06DBCB17203A92
:1005D00041FA02F043EAE07306E041FA02F3D04048
:1005E000C2F1200291400843194670470029A8BF74
:1005F0007047401C490008BF20F00100704710B44C
:10060000B0FA80FC00FA0CF050EA010404BF10BC00
:10061000704749B1CCF1200421FA04F411FA0CF12D
:1006200018BF012121430843A3EB0C01CB1D4FEA66
:1006300000614FEA102042BF002010BC704700EB61
:10064000C35010440029A4BF10BC7047401C49008F
:1006500008BF20F0010010BC704710B5141E73F1E4
:10066000000408DA401C41F1000192185B411A4372
:1006700001D120F0010010BD2DE9F04D92469B46BE
:1006800011B1B1FA81F202E0B0FA80F22032904664
:10069000FFF77BFF04460F4640EA0A0041EA0B01E0
:1006A00053465A46084313D0114653EA010019D065
:1006B000C8F140025046FFF777FF05460E46504608
:1006C00059464246FFF761FF084305D0012004E088
:1006D00020463946BDE8F08D0020054346EAE07625
:1006E0002C4337430A986305E40AA0EB0800002274
:1006F000FD0A44EA47540A3002D500200146E9E7E2
:10070000010510196941DDE9084500196941BDE895
:10071000F04DA2E72DE9F04D81EA030404F0004B0F
:1007200021F0004514464FF0000A23F0004150EA42
:10073000050220D054EA01021DD0C5F30A57024633
:10074000C5F31303C1F31300C1F30A5640F4801537
:1007500043F48013A7EB0608101BD64608F2FD38B9
:1007600073EB050002D308F1010801E092185B4128
:10077000B8F1000F03DA00200146BDE8F08D00203B
:100780004FF48011064684460EE0171B73EB0507F5
:1007900005D3121B63EB050306434CEA010C490821
:1007A0004FEA300092185B4150EA0107EDD152EA5E
:1007B000030012D082EA040083EA0501084305D051
:1007C000101BAB4106D20122002306E000224FF0AD
:1007D000004302E06FF0010253101AEB06004CEBED
:1007E000085110EB0A0041EB0B01BDE8F04DFFF79B
:1007F00034BFC1F30A52C1F3130140F2FF3341F495
:1008000080119A4202DA00200146704740F23343D9
:100810009A42A2F2334202DC5242FFF7C5BEFFF712
:10082000B4BE0000064C074D06E0E06840F001034E
:1008300094E8070098471034AC42F6D3FFF77CFCED
:100840002080000840800008FEE7000070B53749AE
:1008500005462A24486B10F0450FFBD0410702D50E
:100860000324042003E0C00704D00124204603F041
:1008700017F959E003F054F9A8422BD140F2FF5088
:1008800003F00EF9002003F06DF9294908424BD01E
:10089000002801DA1C2070BD410001D5092070BD7F
:1008A000810001D50A2070BDC10001D50B2070BDAB
:1008B000010101D50C2070BD410101D50D2070BD95
:1008C000C10101D50E2070BD010201D50F2070BD00
:1008D000410201D5102070BD810201D5112070BDEB
:1008E000C10201D5122070BD010301D5132070BDD6
:1008F000410301D5142070BD810301D5152070BDC1
:10090000C10301D5162070BD010401D5172070BDAB
:10091000410401D5182070BD810401D5192070BD96
:10092000000701D51A2070BD204670BD008001402F
:1009300008E0FFFD10B50B482A24416B11F0450F6C
:10094000FBD0480702D50324042003E0C80705D0E4
:100950000124204603F0A4F8204610BD40F2FF50C9
:10096000F8E700000080014070B50C4619490646C2
:100970002A25486B10F0450FFBD0410702D5032410
:10098000042003E0C00705D00124204603F088F8C6
:10099000204670BD03F0C4F8B04212D140F2FF50BF
:1009A00003F07EF8002003F0DDF810F4604F03D070
:1009B000810404D5132070BD000C208007E04104A1
:1009C00001D5102070BD000401D50F2070BD284650
:1009D00070BD000000800140C10002D502490860DE
:1009E000704702494860704704040240000002401A
:1009F0000029016802D041F0010101E021F001016C
:100A00000160704701460020CA0001D5034A00E09A
:100A1000034A12680A4200D00120704700040240D5
:100A20000000024030B5036847F6F07293430C6A49
:100A30008A682243D1E904452C4322438C6922432E
:100A4000CC6922434C6A22438C6A22431A430260D7
:100A5000CA6842600A6882604968C16030BD0000AF
:100A600070B505468CB00C461148FFF7B5FF114E26
:100A700000213046FFF7BCFF0F48CDE900050020FC
:100A8000A108CDE902018021CDE904018900069188
:100A90008900CDE907108900CDE909106946304683
:100AA000FFF7C0FF01213046FFF7A2FF0CB070BD79
:100AB00000F00010440402408080014070B50546FB
:100AC0008CB00C461248FFF787FF124E00213046CB
:100AD000FFF78EFF1048CDE9000510200290A00816
:100AE000039000208021CDE904018900069189004E
:100AF000CDE907108900CDE9091069463046FFF7B6
:100B000091FF01213046FFF773FF0CB070BD00006C
:100B100000F0001044040240808001407047000053
:100B20008000A0F1C0400029016802D041F001011D
:100B300001E0024A1140016070470000FEFF0F0013
:100B400010B5D0E901121143D0E903231A43114330
:100B50004269114382691143C2691143026A114318
:100B6000426A1143826A1143C26A1143026B114304
:100B700002689200A2F1C04211608168082907D181
:100B800001688900A1F1C0410A6842F040020A6090
:100B9000416BD1E9002342EA03128B688C891B0266
:100BA00043EA04431A430B8A42EA03520B7D8969E4
:100BB00042EA03620A4301688900A1F1C0414A6028
:100BC000C16AB1F5804F08D000686FF070418000B5
:100BD000A0F1C040C0F8041110BD816BD1E9002321
:100BE00042EA03128B680C8A1B0243EA04531A433D
:100BF0000B7D896942EA036200680A438000A0F124
:100C0000C040C0F8042110BDF0B5CA78002502F03C
:100C10000F03D20601D58A7813430A784FF00F0EDE
:100C200012F0FF0F4FF001021CD004680F8802FA87
:100C300005F63740B74211D14FEA850C0EFA0CF792
:100C400024EA070703FA0CF43C43CF78282F02D09C
:100C5000482F02D002E0466100E006616D1C082DBD
:100C6000E4D304600C88FF2C1ED944685FF00006B2
:100C700006F1080702FA07F50F882F40AF420FD19F
:100C80004FEA860C0EFA0CF7BC4303FA0CF73C4310
:100C9000CF78282F00D14561CF78482F00D105614A
:100CA000761C082EE4D34460F0BD416170470161B9
:100CB0007047000030B40C46014600784B7881281C
:100CC00009D3402B07D3FF2B05D0FF2803D07F2B60
:100CD0000DD2403B0CE00020014603E0401C04F82C
:100CE000011BC0B2B0EB420FF8D330BC7047413BA0
:100CF0008138D9B2C0B2C0EB401303EB801001EBD6
:100D00004000504340000849102A07D0D1F809108C
:100D100018220144204630BC04F0A8B9D1F81110C3
:100D200020220144F6E70000C4E70020FEE70000AF
:100D30007CB5044600224D480092019200894C493E
:100D400000042A2508600D2048604020C1E9020205
:100D500000010861084602F035FF4648416B0191E9
:100D600011F0450FFAD00198400702D50324042062
:100D700004E00198C00705D00124204602F090FE4F
:100D800020467CBD02F0CCFE01900D2838D140F207
:100D9000FF5002F085FE002002F0E4FE0090C0F358
:100DA000432020703449009808425DD00098002804
:100DB00001DA1C207CBD400001D509207CBD0098D3
:100DC000800001D50A207CBD0098C00001D50B2011
:100DD0007CBD0098000101D50C207CBD009840012D
:100DE00001D50D207CBD0098C00101D50E207CBD31
:100DF0000098000201D50F207CBD0098400201D56B
:100E000010207CBD0098800201D511207CBD009887
:100E1000C00201D512207CBD0098000301D513202B
:100E20007CBD0098400301D514207CBD0098800350
:100E300001D515207CBD0098C00301D516207CBDCE
:100E40000098000401D517207CBD0098400401D50E
:100E500018207CBD0098800401D519207CBD009825
:100E6000000701D51A207CBD28467CBD0C0000205F
:100E7000640500200080014008E0FFFDC0F345113B
:100E8000C20AC00200EB4110104480B2704700005B
:100E90002DE9F043174C814600252088668846439B
:100EA000A088A0F5D041043902D1A079012807D04B
:100EB0000021084602F0BEFB02F06AFD0E4814E075
:100EC0000020A0712A2767814FF02B08A4F80C801E
:100ED000014602F0AFFB0120A071A4F80A80A781AF
:100EE000EAE700BFA0F800906D1CB542FAD3BDE858
:100EF000F08300001C0500200008006C2DE9F04F75
:100F000050492C232A242B2522222126898848F681
:100F100089194FF04E0A4FF04F0B45F2105EF02743
:100F200049F24138F8B147484FF0010C414580F88B
:100F300006C04FF4A07CA0F800C047800FD0A1F5F8
:100F4000A647103F0BD0A1F5D047043F4ED04945EE
:100F500050D10281A0F80AB0A0F80CA060E0038193
:100F6000448185815CE037484FF0000C414580F8B2
:100F700006C007804FF4A077478011D0A1F5D04C70
:100F8000BCF1040C0CD0A1F5A04CBCF5447C07D0FE
:100F9000494514D10281A0F80AA0A0F80CB04CE099
:100FA00003814481A1F5D0428581043A03D0A1F5A3
:100FB000A642103A41D107804FF4F0710FE071451D
:100FC0000FD14FF4305101814FF4285141814FF43A
:100FD0002C5181814FF4F07101804FF448714180B0
:100FE0002BE0028120214181868126E00381458119
:100FF000848115E071450FD14FF4305202814FF4D6
:10100000285242814FF42C5282814FF44872028060
:101010004FF4F072428003E00281468120228281F7
:10102000A1F5D042043A03D0A1F5A642103A04D16A
:101030004FF4F0710180A0F802C0BDE8F04F00202D
:1010400002F054BA1C05002000B502F0F3FA02F0D9
:101050009FFC024802490088088000BD080000206B
:101060000008006C2DE9F0471C4B92461F469A88F9
:101070001B4C0E46A51CB989B7F80A90A2F5134C73
:10108000BCF1410C16D0A2F5A647103F12D0B7F51F
:1010900000770ED01F46A2F5D04C97F806803F8807
:1010A0003F1A7F1EBCF1040C04D0B8F1010F05D02B
:1010B00005E0491C2180F0B2288008E0B8B2014662
:1010C000484602F06FFC9889314602F06BFC1889A3
:1010D0002080A5F800A0BDE8F08700001C050020D6
:1010E000FE07006C2DE9F8431F4C1E468046A3887E
:1010F000089FA3F5D040043802D1A079012807D079
:10110000A2EB0800401C84B20D46DFF8609028E096
:1011100025880846A91AA5EB08030025A5713246C3
:101120002A2565812B26491E5B1EA68189B29BB2AA
:101130000097FFF7D7FF0120A0716681A581BDE868
:10114000F8832946404602F075FA02F021FC00209F
:10115000494602E0401C0F8080B2A042FAD36D1CC9
:10116000ADB2B542EDD9EAE71C0500200008006CDD
:101170002DE9F04F01210E02A1B0304602F06CFCC7
:10118000012140F2691002F07FFC0127ADF83C70AC
:1011900010258DF83F5003208DF83E000FA9FE4822
:1011A000FFF732FD4CF23370ADF83C0018248DF897
:1011B0003F4003208DF83E000FA9F848FFF724FDBB
:1011C0004FF68070ADF83C008DF83F4003208DF85D
:1011D0003E000FA9F248FFF717FD41F20100ADF8FC
:1011E0003C008DF83F4003208DF83E000FA9ED48EC
:1011F000FFF70AFD00220F201097CDE9112013926E
:1012000014920320CDE9182015921A920620169206
:101210001792CDE900021B921C92CDE902251D9286
:1012200004922802CDE90820069205928000CDE9BB
:101230000A20079210A8CDE90C2017A80E90684646
:10124000FFF77EFC01210620FFF76AFC322004F044
:1012500095FF0121002002F0A5FB322004F08EFF53
:10126000002002F037F9D04DD04C49F24139A71C8B
:10127000A88046F6040A45F2103B4FF6FF78FF2897
:1012800004D3404502D0B0F5134F1CD1D3202080A9
:10129000388808EA00210843A880484513D0BF21B8
:1012A0002180A88050450ED0D4212180A8805845A7
:1012B00009D04FF45C412180A880B0F5004F02D1E5
:1012C00045F21050A88081B2B9A004F0C7F9A888EF
:1012D000484504D1EF203880112020800AE0504595
:1012E0000DD111202080142004F048FF2A202080F6
:1012F000DF203880782004F041FF2920FEE35845A4
:101300000AD15520388011202080642004F036FF57
:10131000822038802C20F1E7A0F5AA4110393AD07C
:10132000A0F513414FF4E06740F2022940F23F1468
:101330004FF4274A25397DD0FD1D4FF4017BC91E8E
:1013400079D04FF4887A083176D0113901F0EA81EA
:10135000A0F5A841083901F0B982A0F5A8514FF4D1
:10136000407A053901F04E83B1F5204101F05684F1
:10137000B1F5805101F05085A0F50941893901F09E
:101380001486A0F58A41313901F0C386091F01F0A6
:10139000818701F072BF4FF470435521184602F067
:1013A00001FB4FF20105AA21284602F0FBFA6E1C50
:1013B0005221304602F0F6FAAF1C0821384602F0FE
:1013C000F1FA4FF204090121484602F0EBFA0D212F
:1013D0004FF4304002F0E6FA0D214BF2010002F02A
:1013E000E1FA0D214BF2020002F0DCFA4FF4364A2A
:1013F0003421504602F0D6FA34214BF2016002F05B
:10140000D1FA34214BF2026002F0CCFA4FF4314BA6
:101410000D21584602F0C6FA0D214BF2011002F0E0
:10142000C1FA0D214BF2021002F0BCFA34214FF444
:10143000374002E0FDE3FDE3FDE302F0B3FA3421BF
:101440004BF2017002F0AEFA34214BF2027002F05E
:10145000A9FA00214FF4324002F0A4FA00214BF225
:10146000012002F09FFA00214BF2022002F09AFACA
:1014700024214FF4384002F095FA24214BF6010064
:1014800002F090FA24214BF6020002F08BFA0121BF
:101490004FF43F4002F086FA0F214FF4334002F040
:1014A00081FA0F214BF2013002F07CFA0F214BF24E
:1014B000023002F077FA34214FF4394002F072FA28
:1014C00034214BF6011002F06DFA34214BF6021074
:1014D00002F068FA08214FF4354002F063FA08215F
:1014E0004BF2015002F05EFA08214BF2025002F07A
:1014F00059FA03214FF4424002F054FA24214FF4E8
:101500003A4002F04FFA24214BF6012002F04AFA49
:1015100024214BF6022002F045FA00214FF43C4012
:1015200002F040FA78214BF6014002F03BFA00212C
:101530004BF6024002F036FA00214FF43D4002F033
:1015400031FA78214BF6015002F02CFA00214BF6CB
:10155000025002F027FA00214FF43E4002F022FA36
:1015600064214BF6016002F01DFA00214FF4514056
:1015700002F018FA33214DF2011002F013FA0021A3
:101580004DF2021002F00EFA34214DF2031002F077
:1015900009FA002114E00000000C01400014014091
:1015A00000180140002001401C050020FE07006CCF
:1015B000204C43442049443A25780D0A000000009D
:1015C0004DF2041002F0EEF93A214DF2051002F04E
:1015D000E9F900214DF2061002F0E4F94A214DF23A
:1015E000071002F0DFF900214DF2081002F0DAF9DD
:1015F0005C214DF2091002F0D5F900214DF20A10DC
:1016000002F0D0F981214DF20B1002F0CBF900214C
:101610004DF20C1002F0C6F9A6214DF20D1002F0A9
:10162000C1F900214DF20E1002F0BCF9E5214DF296
:101630000F1002F0B7F901214DF2101002F0B2F9CB
:1016400013214DF2111002F0ADF901214DF21210EB
:1016500002F0A8F954214DF2131002F0A3F9012170
:101660004DF2141002F09EF982214DF2151002F095
:1016700099F901214DF2161002F094F9CA214DF2A8
:10168000171002F08FF902214DF2181002F08AF9BA
:1016900000214DF2191002F085F902214DF21A10C5
:1016A00002F080F901214DF21B1002F07BF90221BA
:1016B0004DF21C1002F076F934214DF21D1002F0AB
:1016C00071F902214DF21E1002F06CF967214DF202
:1016D0001F1002F067F902214DF2201002F062F9AA
:1016E00084214DF2211002F05DF902214DF2221009
:1016F00002F058F9A4214DF2231002F053F902210F
:101700004DF2241002F04EF9B7214DF2251002F0EF
:1017100049F902214DF2261002F044F9CF214DF291
:10172000271002F03FF902214DF2281002F03AF999
:10173000DE214DF2291002F035F902214DF22A1076
:1017400002F030F9F2214DF22B1002F02BF90221B8
:101750004DF22C1002F026F9FE214DF22D1002F070
:1017600021F903214DF22E1002F01CF910214DF247
:101770002F1002F017F903214DF2301002F012F988
:1017800033214DF2311002F00DF903214DF23210E8
:1017900002F008F96D214DF2331002F003F9002137
:1017A0004FF4524002F0FEF833214DF2012002F0D6
:1017B000F9F800214DF2022002F0F4F834214DF244
:1017C000032002F0EFF800214DF2042002F0EAF8C5
:1017D0003A214DF2052002F0E5F800214DF20620F5
:1017E00002F0E0F84A214DF2072002F0DBF8002178
:1017F0004DF2082002F0D6F85C214DF2092002F0EB
:10180000D1F800214DF20A2002F0CCF881214DF2EE
:101810000B2002F0C7F800214DF20C2002F0C2F8B4
:10182000A6214DF20D2002F0BDF800214DF20E2050
:1018300002F0B8F8E5214DF20F2002F0B3F80121D3
:101840004DF2102002F0AEF813214DF2112002F0FB
:10185000A9F801214DF2122002F0A4F854214DF212
:10186000132002F09FF801214DF2142002F09AF8A3
:1018700082214DF2152002F095F801214DF216203B
:1018800002F090F8CA214DF2172002F08BF80221E5
:101890004DF2182002F086F800214DF2192002F0D6
:1018A00081F802214DF21A2002F07CF801214DF25C
:1018B0001B2002F077F802214DF21C2002F072F892
:1018C00034214DF21D2002F06DF802214DF21E2050
:1018D00002F068F867214DF21F2002F063F8022140
:1018E0004DF2202002F05EF884214DF2212002F01A
:1018F00059F802214DF2222002F054F8A4214DF2B1
:10190000232002F04FF802214DF2242002F04AF881
:10191000B7214DF2252002F045F802214DF2262094
:1019200002F040F8CF214DF2272002F03BF80221CF
:101930004DF2282002F036F8DE214DF2292002F087
:1019400031F802214DF22A2002F02CF8F2214DF25A
:101950002B2002F027F802214DF22C2002F022F871
:10196000FE214DF22D2002F01DF803214DF22E2014
:1019700002F018F810214DF22F2002F013F8032185
:101980004DF2302002F00EF833214DF2312002F0FA
:1019900009F803214DF2322002F004F86D214DF2D6
:1019A000332001F0FFFF00214FF4534001F0FAFF14
:1019B00033214DF2013001F0F5FF00214DF20230EC
:1019C00001F0F0FF34214DF2033001F0EBFF002174
:1019D0004DF2043001F0E6FF3A214DF2053001F0FE
:1019E000E1FF00214DF2063001F0DCFF4A214DF20B
:1019F000073001F0D7FF00214DF2083001F0D2FF8F
:101A00005C214DF2093001F0CDFF00214DF20A308A
:101A100001F0C8FF81214DF20B3001F0C3FF00211E
:101A20004DF20C3001F0BEFFA6214DF20D3001F059
:101A3000B9FF00214DF20E3001F0B4FFE5214DF267
:101A40000F3001F0AFFF01214DF2103001F0AAFF7D
:101A500013214DF2113001F0A5FF01214DF212309A
:101A600001F0A0FF54214DF2133001F09BFF012142
:101A70004DF2143001F096FF82214DF2153001F045
:101A800091FF01214DF2163001F08CFFCA214DF279
:101A9000173001F087FF02214DF2183001F082FF6C
:101AA00000214DF2193001F07DFF02214DF21A3074
:101AB00001F078FF01214DF21B3001F073FF02218C
:101AC0004DF21C3001F06EFF34214DF21D3001F05B
:101AD00069FF02214DF21E3001F064FF67214DF2D3
:101AE0001F3001F05FFF02214DF2203001F05AFF5C
:101AF00084214DF2213001F055FF00E0E2E30221A4
:101B00004DF2223001F04EFFA4214DF2233001F0BE
:101B100049FF02214DF2243001F044FFB7214DF27C
:101B2000253001F03FFF02214DF2263001F03AFF4F
:101B3000CF214DF2273001F035FF02214DF2283040
:101B400001F030FFDE214DF2293001F02BFF0221A0
:101B50004DF22A3001F026FFF2214DF22B3001F038
:101B600021FF02214DF22C3001F01CFFFE214DF22D
:101B70002D3001F017FF03214DF22E3001F012FF3E
:101B800010214DF22F3001F00DFF03214DF23030C6
:101B900001F008FF33214DF2313001F003FF032142
:101BA0004DF2323001F0FEFE6D214DF2333001F086
:101BB000F9FE00214FF4544001F0F4FE33214DF2C0
:101BC000014001F0EFFE00214DF2024001F0EAFE7B
:101BD00034214DF2034001F0E5FE00214DF20440B6
:101BE00001F0E0FE3A214DF2054001F0DBFE00215C
:101BF0004DF2064001F0D6FE4A214DF2074001F0B9
:101C0000D1FE00214DF2084001F0CCFE5C214DF2E6
:101C1000094001F0C7FE00214DF20A4001F0C2FE6A
:101C200081214DF20B4001F0BDFE00214DF20C4030
:101C300002E049E3FDE3FDE301F0B4FEA6214DF22D
:101C40000D4001F0AFFE00214DF20E4001F0AAFE62
:101C5000E5214DF20F4001F0A5FE01214DF21040AB
:101C600001F0A0FE13214DF2114001F09BFE012175
:101C70004DF2124001F096FE54214DF2134001F056
:101C800091FE01214DF2144001F08CFE82214DF2B3
:101C9000154001F087FE01214DF2164001F082FE51
:101CA000CA214DF2174001F07DFE02214DF218408D
:101CB00001F078FE00214DF2194001F073FE02217F
:101CC0004DF21A4001F06EFE01214DF21B4001F071
:101CD00069FE02214DF21C4001F064FE34214DF2F8
:101CE0001D4001F05FFE02214DF21E4001F05AFE40
:101CF00067214DF21F4001F055FE02214DF22040B8
:101D000001F050FE84214DF2214001F04BFE0221F2
:101D10004DF2224001F046FEA4214DF2234001F095
:101D200041FE02214DF2244001F03CFEB7214DF26C
:101D3000254001F037FE02214DF2264001F032FE2F
:101D4000CF214DF2274001F02DFE02214DF2284017
:101D500001F028FEDE214DF2294001F023FE022190
:101D60004DF22A4001F01EFEF2214DF22B4001F00F
:101D700019FE02214DF22C4001F014FEFE214DF21D
:101D80002D4001F00FFE03214DF22E4001F00AFE1E
:101D900010214DF22F4001F005FE03214DF230409D
:101DA00001F000FE33214DF2314001F0FBFD032133
:101DB0004DF2324001F0F6FD6D214DF2334001F05D
:101DC000F1FD00214FF4554001F0ECFD33214DF2BF
:101DD000015001F0E7FD00214DF2025001F0E2FD5B
:101DE00034214DF2035001F0DDFD00214DF204508D
:101DF00001F0D8FD3A214DF2055001F0D3FD00214C
:101E00004DF2065001F0CEFD4A214DF2075001F08F
:101E1000C9FD00214DF2085001F0C4FD5C214DF2D6
:101E2000095001F0BFFD00214DF20A5001F0BAFD4A
:101E300081214DF20B5001F0B5FD00214DF20C5007
:101E400001F0B0FDA6214DF20D5001F0ABFD0021D7
:101E50004DF20E5001F0A6FDE5214DF20F5001F0BC
:101E6000A1FD01214DF2105001F09CFD13214DF216
:101E7000115001F097FD01214DF2125001F092FD39
:101E800054214DF2135001F08DFD01214DF21450FB
:101E900001F088FD82214DF2155001F083FD0121F2
:101EA0004DF2165001F07EFDCA214DF2175001F09F
:101EB00079FD02214DF2185001F074FD00214DF220
:101EC000195001F06FFD02214DF21A5001F06AFD28
:101ED00001214DF21B5001F065FD02214DF21C5015
:101EE00001F060FD34214DF21D5001F05BFD022137
:101EF0004DF21E5001F056FD67214DF21F5001F0CA
:101F000051FD02214DF2205001F04CFD84214DF293
:101F1000215001F047FD02214DF2225001F042FD17
:101F2000A4214DF2235001F03DFD02214DF2245039
:101F300001F038FDB7214DF2255001F033FD0221AB
:101F40004DF2265001F02EFDCF214DF2275001F029
:101F500029FD02214DF2285001F024FDDE214DF231
:101F6000295001F01FFD02214DF22A5001F01AFD07
:101F7000F2214DF22B5001F015FD02214DF22C50B3
:101F800001F010FDFE214DF22D5001F00BFD03215B
:101F90004DF22E5001F006FD10214DF22F5001F0B0
:101FA00001FD03214DF2305001F0FCFC33214DF2D4
:101FB000315001F0F7FC03214DF2325001F0F2FCF8
:101FC0006D214DF2335001F0EDFC00214FF45640ED
:101FD00001F0E8FC33214DF2016001F0E3FC002147
:101FE0004DF2026001F0DEFC34214DF2036001F09D
:101FF000D9FC00214DF2046001F0D4FC3A214DF2ED
:10200000056001F0CFFC00214DF2066001F0CAFC32
:102010004A214DF2076001F0C5FC00214DF2086035
:1020200001F0C0FC5C214DF2096001F0BBFC002115
:102030004DF20A6001F0B6FC81214DF20B6001F017
:10204000B1FC00214DF20C6001F0ACFCA6214DF278
:102050000D6001F0A7FC00214DF20E6001F0A2FC22
:10206000E5214DF20F6001F09DFC01214DF2106061
:1020700001F098FC13214DF2116001F093FC012155
:102080004DF2126001F08EFC54214DF2136001F00C
:1020900089FC01214DF2146001F084FC82214DF293
:1020A000156001F07FFC01214DF2166001F07AFC11
:1020B000CA214DF2176001F075FC02214DF2186043
:1020C00001F070FC00214DF2196001F06BFC02215F
:1020D0004DF21A6001F066FC01214DF21B6001F027
:1020E00061FC02214DF21C6001F05CFC34214DF2D8
:1020F0001D6001F057FC02214DF21E6001F052FC00
:1021000067214DF21F6001F04DFC02214DF220606D
:1021100001F048FC84214DF2216001F043FC0221D2
:102120004DF2226001F03EFCA4214DF2236001F04B
:1021300039FC02214DF2246001F034FCB7214DF24C
:10214000256001F02FFC02214DF2266001F02AFCEF
:10215000CF214DF2276001F025FC02214DF22860CD
:1021600001F020FCDE214DF2296001F01BFC022170
:102170004DF22A6001F016FCF2214DF22B6001F0C5
:1021800011FC02214DF22C6001F00CFCFE214DF2FD
:102190002D6001F007FC03214DF22E6001F002FCDE
:1021A00010214DF22F6001F0FDFB03214DF2306054
:1021B00001F0F8FB33214DF2316001F0F3FB032114
:1021C0004DF2326001F0EEFB6D214DF2336001F013
:1021D000E9FB5521184601F0E5FBAA21284601F04C
:1021E000E1FB5221304601F0DDFB0821384601F0C9
:1021F000D9FB0021484601F0D5FBCC21584601F01F
:10220000D1FB00214BF2011001F0CCFB052150461F
:1022100001F0C8FB70214FF4374001F0C3FB70217F
:102220004BF2017001F0BEFB01214FF4384001F088
:10223000B9FB03214BF6010001F0B4FB03214BF67F
:10224000020001F0AFFB03214BF6030001F0AAFBF3
:1022500002214FF43C4001F0A5FB00214BF6014068
:1022600001F0A0FB00214BF6024001F09BFBD021C6
:102270004FF4494001F096FB02214CF6011001F0A9
:1022800091FB50214CF6021001F08CFB50214CF6D2
:10229000031001F087FB50214CF6041001F082FB83
:1022A00000214FF4545001F07DFB55214FF468504C
:1022B00001F078FB4FF488502080782003F069FF0C
:1022C0004FF424502080FDE347F6F001E52001F0B3
:1022D00069FB3146012001F065FB3946022001F01F
:1022E00061FB41F23001032001F05CFB002104207E
:1022F00001F058FB4946082001F054FB0021092059
:1023000001F050FB00210A2001F04CFB00210C20C1
:1023100001F048FB00210D2001F044FB00210F20BB
:1023200001F040FB0021102001F03CFB07211120AF
:1023300001F038FB0021122001F034FB00211320B2
:1023400001F030FB0021072001F02CFB41F29061ED
:10235000102001F027FB40F22721112001F022FB81
:102360009D21122001F01EFB4FF4C851132001F0F3
:1023700019FB2521292001F015FB0D212B2001F04F
:1023800011FB0721302001F00DFB40F20331312019
:1023900001F008FB0321322001F004FB40F206218A
:1023A000352001F0FFFA0821362001F0FBFA40F257
:1023B0000641372001F0F6FA4FF44171382001F060
:1023C000F1FA0721392001F0EDFA40F202613C20D8
:1023D00001F0E8FA08213D2001F0E4FA0021502044
:1023E00001F0E0FAEF21512001F0DCFA0021522047
:1023F00001F0D8FA2146532001F0D4FA514660206A
:1024000001F0D0FA0121612001F0CCFA00216A200C
:1024100001F0C8FA0021802001F0C4FA00218120D7
:1024200001F0C0FA0021822001F0BCFA00218320D3
:1024300001E017E0D1E001F0B5FA0021842001F0BD
:10244000B1FA0021852001F0ADFA1021902001F0B1
:10245000A9FA4FF4C061922001F0A4FA40F23311BE
:102460000720FCE341F28F01EC2001F09BFA41F2DE
:102470003421EF2001F096FA3146012001F092FA62
:102480003946022001F08EFA41F23001032001F0BA
:1024900089FA0021042001F085FA4946082001F05C
:1024A00081FA0021092001F07DFA00210A2001F0C3
:1024B00079FA01210C2001F075FA00210D2001F0BC
:1024C00071FA00210F2001F06DFA0021102001F0B7
:1024D00069FA0721112001F065FA0021122001F0AC
:1024E00061FA0021132001F05DFA0121072001F0BB
:1024F00059FA322003F042FE41F29041102001F0DF
:1025000051FA40F22721112001F04CFA322003F059
:1025100035FE8A21122001F045FA322003F02EFE0A
:102520004FF4D051132001F03DFA0621292001F08B
:1025300039FA0D212B2001F035FA322003F01EFE6E
:102540000021202001F02EFA0021212001F02AFA9A
:10255000322003F013FE0021302001F023FA40F274
:102560000461312001F01EFA40F20531322001F001
:1025700019FA0021352001F015FA40F609413620FC
:1025800001F010FA5946372001F00CFA40F20131FF
:10259000382001F007FA2946392001F003FA00211A
:1025A0003C2001F0FFF940F60A213D2001F0FAF944
:1025B000322003F0E3FD0021502001F0F3F9EF2178
:1025C000512001F0EFF90021522001F0EBF92146F2
:1025D000532001F0E7F951464DE10021084601F092
:1025E000E1F93146012001F0DDF93946022001F020
:1025F000D9F941F23001032001F0D4F9002104207F
:1026000001F0D0F94946082001F0CCF90021092059
:1026100001F0C8F900210A2001F0C4F901210C20C1
:1026200001F0C0F900210D2001F0BCF900210F20BC
:1026300001F0B8F9322003F0A1FD40F201110720AA
:1026400001F0B0F9322003F099FD4FF486511020CB
:1026500001F0A8F90721112001F0A4F953465146D1
:10266000122001F09FF94FF43061132001F09AF924
:102670000021292001F096F944F210012B2001F0ED
:1026800091F90021502001F08DF9EF21512001F046
:1026900089F90021522001F085F92146532001F0EB
:1026A00081F94FF41C51602001F07CF90121612077
:1026B00001F078F900216A2001F074F900218020EE
:1026C00001F070F90021812001F06CF900218220D5
:1026D00001F068F90021832001F064F900218420D1
:1026E00001F060F90021852001F05CF910219020B3
:1026F00001F058F90021922001F054F901219320B2
:1027000001F050F91946952001F04CF9002197206D
:1027100001F048F90021982001F044F940F27311CA
:10272000072078E341F21401E72001F03BF931463C
:10273000012001F037F94FF40071022001F032F965
:1027400041F23801032001F02DF94946082001F03B
:1027500029F90021092001F025F900210A2001F0C2
:1027600021F900210C2001F01DF900210D2001F0BC
:1027700019F900210F2001F015F90021102001F0B6
:1027800011F90721112001F00DF90021122001F0AB
:1027900009F90021132001F005F9C82003F0EEFC2F
:1027A00041F29061102001F0FDF840F22721112044
:1027B00001F0F8F8322003F0E1FC0C21122001F0C6
:1027C000F1F8322003F0DAFC4FF40061132001F03D
:1027D000E9F81121292001F0E5F80B212B2001F067
:1027E000E1F8322003F0CAFC0021202001F0DAF8E1
:1027F0002146212001F0D6F80021302001F0D2F846
:102800004FF483731946312001F0CCF800213220B7
:1028100001F0C8F85946352001F0C4F841F20A61C8
:10282000362001F0BFF82946372001F0BBF81946E1
:10283000382001F0B7F82946392001F0B3F840F20A
:1028400002413C2001F0AEF840F60F413D2001F07E
:10285000A9F80021502001F0A5F8EF21512001F046
:10286000A1F80021522001F09DF82146532001F0EB
:1028700099F84FF41C51602001F094F80121612077
:1028800001F090F800216A2001F08CF800218020EE
:1028900001F088F80021812001F084F800218220D5
:1028A00001F080F80021832001F07CF800218420D1
:1028B00001F078F80021852001F074F810219020B3
:1028C00001F070F84FF4C0619220FDE33146012021
:1028D00001F068F83946022001F064F841F2300155
:1028E000032001F05FF80021042001F05BF840F2C2
:1028F0000721082001F056F80021092001F052F8C4
:1029000000210A2001F04EF800210C2001F04AF8C5
:1029100000210D2001F046F800210F2001F042F8BF
:10292000142003F02BFC41F2B061102001F03AF8C2
:102930000121112001F036F80121172001F032F8B1
:102940004FF49C71122001F02DF84FF40061132018
:1029500001F028F80921292001F024F809212A2072
:1029600001F020F80021A42001F01CF800215020E3
:1029700001F018F8EF21512001F014F80021522045
:1029800001F010F82146532001F00CF84FF41C51CF
:10299000602001F007F80121612001F003F8002117
:1029A0006A2000F0FFFF0021802000F0FBFF0021E3
:1029B000812000F0F7FF0021822000F0F3FF0021CA
:1029C000832000F0EFFF0021842000F0EBFF0021C6
:1029D000852000F0E7FF1321902000F0E3FF0021A5
:1029E000922000F0DFFF0321932000F0DBFF51462F
:1029F000952000F0D7FF40F27311072000F0D2FFBE
:102A0000322008E10021072000F0CCFF322003F043
:102A1000B5FB4FF48E71122000F0C4FF0121A420F9
:102A200000F0C0FF0F21082000F0BCFF08210A20A1
:102A300000F0B8FF08210D2000F0B4FF2946302037
:102A400000F0B0FF0721312000F0ACFF40F203613D
:102A5000322000F0A7FF3946332000F0A3FF49469B
:102A6000342000F09FFF0221352000F09BFF41F64B
:102A70000F71362000F096FF2946372000F092FFB4
:102A80000021382000F08EFF0021392000F08AFF5D
:102A900029463A2000F086FF00213B2000F082FF0B
:102AA00007213C2000F07EFF00213D2000F07AFF4E
:102AB000322003F063FB0121072000F073FF0121A6
:102AC000172000E0D9E300F06DFF322003F056FB41
:102AD0004FF4BD51102000F065FF40F21721112086
:102AE00000F060FF4FF48F71122000F05BFF4FF495
:102AF0007061132000F056FF00212A2000F052FFE1
:102B00000A21292000F04EFF4FF49F71122000F09F
:102B100049FF0021502000F045FFEF21512000F037
:102B200041FF0021522000F03DFF2146532000F0DC
:102B300039FF4FF41C51602000F034FF0121612067
:102B400000F030FF00216A2000F02CFF00218020DF
:102B500000F028FF0021812000F024FF00218220C6
:102B600000F020FF0021832000F01CFF00218420C2
:102B700000F018FF0021852000F014FF13219020A1
:102B800000F010FF5146922000F00CFF0521932029
:102B900000F008FF0021952000F004FF002197209D
:102BA00000F000FF0021982000F0FCFE31460120DB
:102BB00000F0F8FE3946022000F0F4FE41F2380140
:102BC000032000F0EFFE0021042000F0EBFE0021C6
:102BD0000C2000F0E7FE00210F2000F0E3FE0021B2
:102BE000202000F0DFFE0021212000F0DBFE21216B
:102BF000072000F0D7FE142003F0C0FA612107205F
:102C000000F0D0FE142003F0B9FA40F2731107204F
:102C100000F0C8FE142003F0B1FA2EE300210846AC
:102C200000F0C0FE0021084600F0BCFE002108466E
:102C300000F0B8FE0021084600F0B4FE0121A420F7
:102C400000F0B0FE142003F099FA4FF41C5A5146DC
:102C5000602000F0A7FE4D464946082000E0D6E07F
:102C600000F0A0FE4FF40571302000F09BFE43F20F
:102C70001571312000F096FE40F20461322000F020
:102C800091FE40F61661332000F08CFE42F21121D5
:102C9000342000F087FE4FF4A851352000F082FE6A
:102CA00048F20751362000F07DFE41F207413720FF
:102CB00000F078FE41F20341382000F073FE20213D
:102CC000392000F06FFE1A21902000F06BFE0021E9
:102CD000102000F067FE0721112000F063FE0021A4
:102CE000122000F05FFE0021132000F05BFE142094
:102CF00003F044FA4FF4E661102000F053FE40F276
:102D00003711112000F04EFE142003F037FA4FF473
:102D1000DC71122000F046FE142003F02FFA4FF46D
:102D20007061132000F03EFE80212A2000F03AFE60
:102D30004821292000F036FE142003F01FFA314606
:102D4000012000F02FFE3946022000F02BFE41F258
:102D50003801032000F026FE2946082000F022FE5C
:102D600000210A2000F01EFE00210C2000F01AFEB7
:102D700000210D2000F016FE30210E2000F012FE82
:102D80000021502000F00EFEEF21512000F00AFE3D
:102D90000021522000F006FE2146532000F002FEE2
:102DA0005146602000F0FEFD0121612000F0FAFD97
:102DB00000216A2000F0F6FD1121902000F0F2FDC4
:102DC0004FF4C061922000F0EDFD40F202419320EB
:102DD00000F0E8FD0221942000F0E4FD142003F04F
:102DE000CDF90121072000F0DDFD142003F0C6F924
:102DF0006121072000F0D6FD40F27311072000F09A
:102E0000D1FD0021202000F0CDFD0021212000F087
:102E1000C9FD222100202EE20021084600F0C2FD5B
:102E20000021084600F0BEFD142003F0A7F90021A0
:102E3000084600F0B7FD0021084600F0B3FD002170
:102E4000084600F0AFFD0021084600F0ABFD01216F
:102E5000A42000F0A7FD142003F090F94FF41C51BA
:102E6000602000F09FFD40F60601082000F09AFD6A
:102E700040F203731946302000F094FD0121312007
:102E800000F090FD0421322000F08CFD4FF48171A0
:102E9000332000F087FD55465146342000F082FD76
:102EA00040F20311352000F07DFD1F21362000F097
:102EB00079FD1946372000F075FD0121382000F01A
:102EC00071FD0421392000F06DFD1521902000F0E6
:102ED00069FD4FF48261102000F064FD40F247214B
:102EE000112000F05FFD4FF4DE71122000F05AFD5A
:102EF0004FF46061132000F055FD782003F03EF997
:102F00003146012000F04EFD4FF40071022000F028
:102F100049FD41F23001032000F044FD08210A2060
:102F200000F040FD00210C2000F03CFD20210E208F
:102F300000F038FD00210F2000F034FD002120209A
:102F400000F030FD0021212000F02CFD3D212A2041
:102F500000F028FD142003F011F92D21292000F0A4
:102F600021FD0021502000F01DFD4DF2EF01512008
:102F700000F018FD0021522000F014FD21465320DE
:102F800000F010FD0021612000F00CFD00216A20FE
:102F900000F008FD2946922000F004FD0521932051
:102FA00000F000FD3146FFF7BBBB0121002000F01F
:102FB000F9FC4AF6A401032000F0F4FC00210C20E7
:102FC00000F0F0FC40F60C010D2000F0EBFC4FF49B
:102FD0002C510E2000F0E6FCB0211E2000F0E2FC97
:102FE00042F63F31012000F0DDFC4FF4C0610220C9
:102FF00000F0D8FC0021102000F0D4FC46F278014B
:10300000112000F0CFFC0021052000F0CBFC0021B6
:10301000062000F0C7FC4EF61C71162000F0C2FC22
:103020000321172000F0BEFC40F23321072000F0FE
:10303000B9FC00210B2000F0B5FC00210F2000F0AE
:10304000B1FC0021412000F0ADFC0021422000F045
:10305000A9FC0021482000F0A5FC2146492000F0F1
:10306000A1FC00214A2000F09DFC00214B2000F033
:1030700099FC4FF46F41442000F094FC002145205E
:1030800000F090FC2146462000F08CFC29463020C0
:1030900000F088FC5B465946312000F083FC19465D
:1030A000322000F07FFC40F202542146332000F031
:1030B00079FC611D342000F075FC1946352000F0C4
:1030C00071FC1946362000E087E100F06BFC2146D8
:1030D000372000F067FC40F2023319463A2000F036
:1030E00061FC19463B2000F05DFC0021232000F02C
:1030F00059FC0021242000F055FC4FF4004125200C
:1031000000F050FC00214F2000F04CFC00214E202C
:10311000B1E00121002000F045FC0A2003F02EF868
:1031200041F22861102000F03DFC0E21122000F039
:1031300039FC40F63921132000F034FC0A2003F05A
:103140001DF84021112000F02DFC5021152000F029
:1031500029FC0A2003F012F81E21122000F022FCA4
:103160000A2003F00BF84FF4B151102000F01AFCC4
:1031700042F63921132000F015FC0A2002F0FEFF70
:103180003146012000F00EFC5146022000F00AFCFE
:1031900041F23801032000F005FC4946082000F008
:1031A00001FC08210A2000F0FDFB0021302000F086
:1031B000F9FB40F20241312000F0F4FB4FF483713F
:1031C000322000F0EFFB40F20351332000F0EAFB25
:1031D0004FF48271342000F0E5FB40F201313520DC
:1031E00000F0E0FB2946362000F0DCFB40F2053120
:1031F000372000F0D7FB4FF40271382000F0D2FBEB
:1032000040F60B71392000F0CDFB0221412000F087
:10321000C9FB4FF41C51602000F0C4FB0121612068
:1032200000F0C0FB4FF40471902000F0BBFB4FF4A2
:103230008571922000F0B6FB0421932000F0B2FBD0
:103240003146A02000F0AEFB0121072000F0AAFBD0
:103250002121072000F0A6FB2321072000F0A2FB7C
:103260003321072000F09EFB40F23311072000F0CD
:1032700099FB0021A02000F095FB0020FDF73EFE09
:1032800001215848FDF711FD4046FDF701FE21B030
:10329000BDE8F08F3021152000F084FB10219A202A
:1032A00000F080FB2021112000F07CFB43F228413C
:1032B000102000F077FB0221122000F073FB41F296
:1032C0003801132000F06EFB282002F057FF122176
:1032D000084600F067FB282002F050FF43F220412F
:1032E000102000F05FFB43F23801132000F05AFB7E
:1032F000462002F043FF0021302000F053FB40F253
:103300000241312000F04EFB40F20731322000F044
:1033100049FB4FF44171332000F044FB0421342079
:1033200000F040FB40F20141352000F03BFB294614
:10333000362000F037FB40F20531372000F032FB39
:103340004FF4C2631946382000F02CFB194639208F
:1033500000F028FB3146012000F024FB51460220FA
:1033600000F020FB41F23001032000F01BFB40F68F
:103370000801082000F016FB08210A2000F012FBCB
:103380004FF41C51602000F00DFB0121612000F082
:1033900009FB4FF49F71902000F004FB314692200E
:1033A00000F000FB3146932000F0FCFA4FF440514E
:1033B000A02000F0F7FA1021A32000F0F3FA012179
:1033C000072000F0EFFA2121072000F0EBFA23217B
:1033D000072000F0E7FA3321072000F0E3FA40F27B
:1033E0003311E0E5000C01400246012000E05043AB
:1033F000491EC9B2FBD27047F0B5344D00263446A1
:103400002A88824202D96A888A4201D80020F0BD07
:1034100000F010F9A98849F241322D4846F604031C
:1034200045F2103545F21057914203D0994201D030
:10343000A94201D12E2305E0B94202D14FF43853FD
:1034400000E022230380A1F51340203803D101209E
:10345000401EC0B2FCD21E48801C012300885B1EA7
:10346000DBB2FCD2914203D0A94201D0B94209D1CA
:1034700001235B1EDBB2FCD2C3B24FF6FF760446DB
:1034800006EA0326A1F51343253BC0D0A1F58A43E4
:10349000353BBCD01B1DBAD0A1F50943893BB6D042
:1034A000A1F53543053BB2D0914203D0A94201D0EA
:1034B000B94207D16FF30A00B10A40EA411040EA6D
:1034C000D420F0BDBDE8F040FDF7D8BC1C050020BD
:1034D000FE07006C044910B50880052002F059FE73
:1034E0000148801C008810BDFE07006CF0B54F4CF1
:1034F00000232146A579898846F60402012D18D1BA
:10350000914216D0082814D2DFE800F00406080A19
:103510000C0E101206200CE007200AE0042008E040
:10352000052006E0012004E0002002E0032000E086
:103530000220A1F5134745F2103645F21055413FE0
:1035400005D0914203D0B14201D0A94249D1082807
:1035500012D2DFE800F0110406080A0C0E108023D6
:103560000AE0402308E0C02306E0202304E06023B3
:1035700002E0A02300E0E023A94202D14FF458501A
:1035800000E03620B14203D0A94201D043F0080345
:10359000914201D143F00203194600F003FA980664
:1035A00014D4A079012811D020886188884201D9DB
:1035B000218060801E4AA088911CA842A0890AD15F
:1035C000A378C01C10805B1ED8B208E020886188F8
:1035D0008842EDD3EEE71080A078401EC0B208808C
:1035E000F0BD082812D2DFE800F0040608110A0C2A
:1035F0000E1030230AE0102308E0202306E03823D1
:1036000004E0282302E0182300E00823A1F5094084
:10361000893806D0032043F48051BDE8F04000F023
:10362000C1B9112046F240011943F6E71C050020FC
:10363000FE07006C2DE9F0431B4E1C4A3746B58847
:103640000C46931CB989B7F80A80A5F5134CBCF158
:10365000410C16D0A5F5A647103F12D0B14696F8FA
:1036600006C03688A5F5D047361A761E043F08D026
:10367000A5F5AA47103F09D04B46BCF1010F07D072
:1036800007E01180E0B21880BDE8F083491CF8E73C
:10369000B0B20146404600F085F998892146BDE860
:1036A000F04300F07FB900001C050020FE07006C0D
:1036B0002DE9F04705461044401E86B2C818304A2E
:1036C0000C46401E81B2B2F804C010462D4B8089D2
:1036D000ACF5134703F10208413F34D0ACF5A647DF
:1036E000103F30D0ACF5D047043F2CD0ACF5AA4702
:1036F000103F2ED09079012837D0334628462646F1
:103700004FEA0107ACF50941893924D050224FF026
:10371000510A4FF05209532188460146104600F0E5
:1037200041F91946504600F03DF93146484600F04F
:1037300039F93946404600F035F921462846BDE8BA
:10374000F047FFF777BF1880C8B2A8F80000BDE8BF
:10375000F087C01CF7E7442240EA032080B292467B
:1037600003464FF045094621D6E70B46118820460F
:103770008A1B521E491B491E96B28FB2C2E7000037
:103780001C050020FE07006C2DE9FF4F0C468A4601
:1037900045490546203AB1F80080D1B20D981E4641
:1037A000029198B3002076E00C2E0DD03F4802998C
:1037B00000EB01114FF0000B11F8097038060AD523
:1037C0003949A1F8008009E0029800EB400138482F
:1037D00000EB8101EEE7344841880180214628460C
:1037E000FDF732FC7806070E3248641CA4B200884C
:1037F000A84253D9A4EB0A00B04208D12D486D1C51
:10380000ADB200885446A84248D907E009E00BF160
:10381000010000F0FF0BBBF1080FCFD309F101004D
:10382000C0B28146B042BFD338E00C2E22D01F4830
:10383000029900EB011100BF11F809704FF0000B65
:10384000380603D521462846FDF7FEFB7806070E0D
:103850001848641CA4B24088A8421FD9A4EB0A00EF
:10386000B0420ED113486D1CADB200885446A84238
:1038700014D90DE0029800EB40010D4800EB8101E6
:10388000DAE70BF1010000F0FF0BBBF1080FD7D313
:1038900009F10100C0B28146B042C6D30249A1F885
:1038A0000080BDE8FF8F000008000020707900084C
:1038B000FC7400081C0500202DE9FF4F81B0002694
:1038C000DDF838A01D46934681463446B0464FEA9F
:1038D0005A0727E0281B401EC1B20A20FFF784FDCB
:1038E000BBFBF0F00A21B0FBF1F201FB120026B99C
:1038F000691E8C4201DA48B101263030C2B207FBA2
:10390000049080B25346CDF8008006E007FB049097
:1039100080B253462022CDF800800299FFF734FF91
:10392000641CE4B2AC42D5D305B0BDE8F08F2DE9FC
:10393000F84F044600F0FF0910190D46DDE90AB6FC
:103940001FFA80F8581987B24FF0000A12E0444578
:1039500003D305EB0B004C4685B2BD420FD25B464C
:1039600029462046CDF800A0FFF70EFF04EB5B00D0
:1039700084B2761C3278A2F120005E28E7D9BDE837
:10398000F88F000001490880704700000008006CB3
:103990000248034900890880704700001C05002088
:1039A000FE07006C024A1080901C018070470000E6
:1039B000FE07006CFEE7000010B5002002F0D7FC07
:1039C000BDE81040012202A1024802F0FFBC000045
:1039D00000000000840000207047000070B50F2335
:1039E000C47801780122F4B1144C2468457804F4B9
:1039F000E064C4F5E064240AC4F10406E34084787A
:103A0000B5401C402C4301F1E021230181F8003432
:103A1000007800F01F018A404009800000F1E0209A
:103A2000C0F8002170BD01F01F00824048098000ED
:103A300000F1E020C0F8802170BD00000CED00E036
:103A40000249084302490860704700000000FA0577
:103A50000CED00E070470000044A0029516901D0D4
:103A6000014300E0814351617047000000100240B3
:103A7000044A0029D16901D0014300E08143D161AA
:103A80007047000000100240044A0029916901D0EB
:103A9000014300E081439161704700000010024043
:103AA0000149886370470000008001400149886334
:103AB00070470000008001400149C1F8A000704734
:103AC0000000304201490860704700008C05304218
:103AD00010B5094A0168516241689162D16A21F0CA
:103AE000F703D0E902142143D0E904400443214301
:103AF0001943D16210BD000000800140064800213A
:103B0000016041608160C16041628162C162034ABB
:103B10008263C1637047000000800140FF07C0005E
:103B200001480069C0B2704700800140034A014665
:103B30000020526B0A4200D00120704700800140F3
:103B4000034A01460020526B0A4200D00120704710
:103B5000008001400248006800F003007047000048
:103B600000800140014908444069704700800140DD
:103B700000F04ABB044A0029D16B01D0014300E0A8
:103B80008143D163704700000080014030B5094B8C
:103B90005A6847F6FF618A430178C4680569214382
:103BA00084682C4321434468406921430143114305
:103BB000596030BD008001400148D0F88000704756
:103BC0000080014010B5084A01689160D168CB0AB5
:103BD000D0E901142143D0E903400443DB0221432F
:103BE0001943D16010BD00000080014004490A68FB
:103BF00022F003020A600A6802430A60704700006C
:103C0000008001400149C1F88000704700800140F8
:103C10002DE9F0478E49DFF83C824FF02A0C4D68C1
:103C200080F84E500989A0F84C10D8F800100A0E00
:103C300093090370C2F38303437002F0030282709E
:103C40000A0CC2700A0A02714171D8F80440210EB0
:103C50000901C180C288C4F3074142EA1112C2803F
:103C600001F00F010172C4F30721CA094272C1F3C6
:103C700080128272C1F34012C272C1F30012027349
:103C80004FF0000980F80D9042464FF0010A966807
:103C9000330EC6F30742C6F3072725B1012D02D024
:103CA000022D2BD03CE08907090D0161E1B20469C6
:103CB00044EA81010161016941EA93110161C3F3A1
:103CC000C201017503F00701417551098175C2F305
:103CD0008201C1759107490F0176027E394642EA99
:103CE000D11202760269037E521C9B1C047A9A4010
:103CF0000AFA04F35A43C0E9112311E0A106890A24
:103D00000161016941EA0321016101691143016116
:103D100002693946521CD20442644FF40072826434
:103D2000C1F3801242768906490E00F81A1FF1B2DB
:103D300010F8022B42EAD11200F8022C01F07F01A8
:103D400000F8011CD8F80C20110ECB090370C1F348
:103D500041134370C1F3820383708907090FC17057
:103D6000C378C2F3074143EA9113C370C1F3401310
:103D7000037180F8059001F001018171C2F3072100
:103D8000CB09C371C1F380130372C1F340134372B3
:103D9000C1F300138372C1F38103C37201F0030105
:103DA0000173C2F346014173534680F80EA0294ABD
:103DB000103211680C0E04740C0C24024482458AE3
:103DC000C1F30724254345820906416151684569CD
:103DD0000C0E45EA044444614569C1F3074445EAD1
:103DE000042444614569C1F30724254345610176F4
:103DF00091680C0E44760C0C2406C461C569C1F3AD
:103E0000072445EA0444C461C469C9B244EA0121F3
:103E1000C161D168C46944EA1164C46190F820406A
:103E2000C1F3074244EA121480F820401207120D31
:103E30004284448CC1F3072214434484C1F34601F5
:103E400080F8241080F825306046BDE8F087000037
:103E50000C0000202C05002000B595B000F014F8EF
:103E60002A280ED16846FFF7D3FE2A2809D1BDF8CB
:103E70004C00000400F0C8FC2A2802D1012000F008
:103E8000D9FC15B000BD00002DE9FC414FF4C06025
:103E9000FFF7D6FD31208DF8000000248DF8014099
:103EA0008DF8024001268DF803606846FFF796FD05
:103EB00001210820FFF7E8FD2020ADF804001020C4
:103EC0008DF80700214F03258DF8065001A93846CB
:103ED000FCF79AFE20213846FCF7E7FE012130204E
:103EE000FFF7D2FD4FF4F850ADF804008DF80650FE
:103EF00018208DF8070001A91548FCF785FE04205D
:103F0000ADF8040001A91348FCF77EFE01218802E8
:103F1000FFF7A2FD01210220FFF79EFDFFF7EEFD56
:103F200000F0A0F82A280FD100F018F805462A283A
:103F30000AD1094908460E704C608C60CC600C6157
:103F40004C61FFF723FE2846BDE8FC81000C0140D0
:103F500000100140001401404C0500202DE9F84FED
:103F600001202A25ADF80000FFF7F4FDB8B3DFF813
:103F7000EC90D9F8040004286DD0394C4FF0C00AF9
:103F800000260220C4F808A0C4E900604FF480684D
:103F9000C4E903682046FFF715FEFCF7CBFC054695
:103FA0002A281ED10020FFF7DDFDA4F12807386084
:103FB0000420FFF7D7FD78600820FFF7D3FDB86035
:103FC0000C20FFF7CFFDF860D9F804004F4650B140
:103FD000012808D0062806D0022804D014E0FFE704
:103FE0002520BDE8F88F0320E4E80260402084E843
:103FF00041011B48083CFFF7E5FD69460320FCF73B
:10400000B3FC05462A28ECD17868042823D0BDF8F3
:104010000000B860000420600920C4E9010AC4E976
:1040200003680F48FFF7CEFDFCF784FC05462A28FD
:10403000D7D10020FFF796FD094C383C20600420C2
:10404000FFF790FD60600820FFF78CFDA0600C205A
:10405000FFF788FDE0602846C3E700000C00002061
:10406000640500202DE9F05F63484FF00009B2219C
:104070000170C0F80490C0F80890C0F80C90C0F827
:104080001090C8464F46C0F81490FFF77FFD0320FC
:10409000FFF7ACFD0120FFF70FFD574C4FF4806593
:1040A0001834204627606760A760C4E90375FFF7EE
:1040B00089FD42F2107A564601E0761E1CD080201F
:1040C000FFF734FD0028F8D0B6B140F2FF50FFF7FB
:1040D000E7FC4FF4D5702060211D082040262561A3
:1040E00081E8C10044481830FFF76CFD434A504650
:1040F000516B4FF0370B05E00320BDE8F09F3F49BF
:10410000496B401E11F0450F12D008B1480712D577
:104110000420FFF7C5FCA660C4E9007B3648C4E96B
:1041200003751830FFF74EFD3720FCF78FFB0CE0CE
:104130000028E4D1ECE7480602D54020FFF7B0FCA8
:104140002F4801214FF080484160A660C4E9007B00
:10415000C4E903752848BA461830FFF733FD372005
:10416000FCF774FB07462A2843D1A660C4E900ABDC
:104170002148C4E903A557461830FFF723FD37202F
:10418000FCF764FB2A28B8D11E4948EA01002060E8
:10419000211D2920256181E8C10017481830FFF74B
:1041A00011FD16492A27486B10F0450FFBD0400738
:1041B00004D503270420FFF773FC1AE040F2FF50F8
:1041C000FFF76EFC0020FFF7CDFCC10F09F10109DC
:1041D00003D14FF6FF718945C7D34FF6FF72914562
:1041E00001D31B2089E710F0804F02D00448022140
:1041F0004160384681E700004C0500200080014006
:104200000C000020000010802DE9F041644D0024D6
:10421000E868012841D1C003FFF792FC60B100BFFC
:10422000FFF7CAFC696A41F82400641C082CF7D324
:10423000686A203068622DE04FF48040FFF780FC10
:1042400058B3E9692869411A202918D2E969411A45
:104250008907E969A0EB01004FEA90060CD0761CB3
:104260000AE0286A0068FFF7CDFC286A001D286272
:10427000E869001DE861641CB442F2D30DE0286ACD
:1042800050F82400FFF7BEFC641C082CF7D3286A02
:1042900020302862E8692030E8614FF480763046AB
:1042A000FFF74EFC00244CF23A3848B3E86890B16E
:1042B00077033846FFF73AFC68B1E8692969884214
:1042C00009D2FFF779FC0146686A02C06862E869B2
:1042D000001DE861EDE7686901280ED02A202870EA
:1042E0003046FFF7E3FB00214046FFF743FC012087
:1042F000A861EC612878BDE8F08100F0A9FAEEE74A
:104300000220FFF71DFC50B10220FFF7CFFB002178
:104310004046FFF72FFCEC6102202870EBE70820F5
:10432000FFF70EFC50B10820FFF7C0FB002140460C
:10433000FFF720FCEC6104202870DCE72020FFF769
:10434000FFFB50B12020FFF7B1FB00214046FFF7F3
:1043500011FCEC6106202870CDE71020FFF7F0FB80
:1043600050B11020FFF7A2FB00214046FFF702FCEE
:10437000EC6105202870BEE74FF400763046FFF769
:10438000DFFB50B13046FFF791FB00214046FFF7BD
:10439000F1FBEC6107202870ADE72A20ABE70000B5
:1043A0000C0000202DE9F84F14460D0006467DD084
:1043B000DFF8E4912A2089F800000027C9F8187076
:1043C000DFF8DC817549C9F81070C8E90017C8F832
:1043D0000870C8F80C70C8F810704046C8F814701F
:1043E000FFF776FB0020FFF76DFB0020FFF7BAFB1D
:1043F000800102D50E20BDE8F88F67484FF4007B9E
:104400004068022854D0601EB0F5006F4ED2601E86
:1044100004424BD1204601F0C5FDDFF884910090A5
:10442000A9F1140948461021C0E900414FF0400AA3
:10443000C9E902A78901C9F81010FFF7C3FB1020D2
:10444000FCF704FA2A28D6D15448C8E90004009899
:104450000001C8F808000220C8E903070120C8F8D5
:1044600014004F48FFF734FBDFF82C814846112138
:10447000C8E90447C8F82450C0E90061C9E902A7A7
:104480004FF48061C9F81010FFF79CFB1120FCF776
:10449000DDF906462A28AED1D8F80C004746022896
:1044A00017D0012854D078B373E0FFE72620A2E7A5
:1044B0005C46760AABE74846FFF738FB70B100244C
:1044C000FFF77AFB45F82400641C082CF8D320354C
:1044D00004E0344F4FF4004940F22A68786B10EA48
:1044E000080FE8D00820FFF721FB20B10820FFF7D4
:1044F000D7FA04207FE70220FFF718FB28B102203B
:10450000FFF7CEFA022076E731E02020FFF70EFB1E
:1045100020B12020FFF7C4FA06206CE75C4658461D
:10452000FFF704FB40B12046FFF7BAFA072062E725
:10453000FFF742FB01C501E04FF400142046FFF7EE
:10454000F5FA0028F4D140F2FF50FFF7A9FA20E075
:10455000012148F22A30FFF70DFBB86910B938780D
:104560002A28FAD038782A2813D0387843E701214E
:1045700040F22A30FFF7FEFA0120FFF7A3FA2146A6
:104580002846FCF76DFA084C2046FCF73BFA002859
:10459000FAD030462FE700000C000020FFFF0F008C
:1045A0007805002000800140002000102DE9F84F20
:1045B0001E4614460D00804648D0DFF838922A2166
:1045C00089F800100027C9F818708C488A49C9F882
:1045D0001070C0E900178760C76007614761FFF787
:1045E00077FA0020FFF76EFA0020FFF7BBFA800190
:1045F00002D50E20BDE8F88FD9F80400022827D094
:10460000601EB0F5006F21D2601E04421ED120460C
:1046100001F0C8FC009079484FF0400B143810218D
:10462000C0F808B0C0E900418901C0E90371BA4689
:10463000FFF7C8FA1020FCF709F907462A28D9D154
:10464000012E42D96643B6F1007F06D32620D1E77A
:104650004FF400744FEA5828D6E74C46C9F8245066
:1046600001216648C4E90461634AC0E90026009A52
:10467000D146120182600222C260C0E904A15746FD
:10468000FFF726FA4146DFF874814FF4806AA8F1FB
:1046900014084046C8F800101221C8F80410402140
:1046A000C8E90217C8F810A0FFF78CFA1220FCF72F
:1046B000CDF807462A289DD1E06840F22A32022828
:1046C00013D001286CD000287AD091E04FF400403C
:1046D000FFF72CFA50B10026FFF76EFA45F82600D6
:1046E000761C082EF8D3203500E093464448406BF2
:1046F00010EA0B0FEAD00820FFF718FA20B10820C3
:10470000FFF7CEF9042075E70220FFF70FFA20B17A
:104710000220FFF7C5F902206CE72020FFF706FA18
:1047200020B12020FFF7BCF9062063E74FF40076A4
:104730003046FFF7FBF948B13046FFF7B1F90720E3
:1047400058E700BFFFF738FA01C501E04FF4001643
:104750003046FFF7EBF90028F4D14FF48070FFF7F3
:10476000E5F9C0B1606818B1022801D0012812D162
:1047700040460C22C0E900924022C8E902291F48A5
:10478000C8F810A01438FFF71DFA0C20FCF75EF8EB
:1047900007462A28B7D140F2FF50FFF781F927E0FA
:1047A000012148F22A30FFF7E5F9A06910B9207815
:1047B0002A28FAD020782A281AD020781AE7FFE78A
:1047C00001211046FFF7D6F90120FFF77BF93146AA
:1047D0002846FCF745F90B4D2846FCF713F900284D
:1047E000FAD0A0690028E5D120782A28F9D0E1E79D
:1047F0003846FFE60C000020FFFF0F007805002080
:104800000080014000200010094910B50860072011
:104810004860402088600020C8604FF480600861D4
:104820000846FFF7CFF9BDE810400720FCF70EB8A7
:10483000640500202A2130B1012804D0022802D0CA
:10484000262108467047014AD060FAE70C00002094
:10485000084810B500210C22C0E900124022C0E92E
:10486000022111010161FFF7ADF9BDE810400C20F4
:10487000FBF7ECBF640500202DE9FC5F4FF000075B
:1048800014460D0080468DF800703E4668D0DFF873
:10489000A4922A2189F80010C9F81870DFF89CB298
:1048A000A5495846C9F81070C0E90017CBF8087040
:1048B000CBF80C70CBF81070CBF81470FFF708F938
:1048C0000020FFF7FFF80020FFF74CF9800102D528
:1048D0000E20BDE8FC9FD9F80400022842D0601EDB
:1048E000B0F5006F3CD2601E044239D1204601F081
:1048F00059FBDFF848A20190AAF1140A5046102192
:10490000C0E900414021CAE902170901CAF81010A4
:10491000FFF758F91020FBF799FF2A28D9D18548CD
:10492000D1460089010450464FF00D0AC0E9001A33
:10493000402181600021C16080484FF480611438BB
:10494000C9F81010FFF73EF90D20FBF77FFF2A286A
:10495000BFD10020FFF706F9774F4FF0000A21E0A2
:104960002620B6E74FF400744FEA5828BBE7714899
:104970007F1E00890104C9F800100D21C9F8041038
:104980004021C9E9021A6D4809011438C9F810100C
:10499000FFF718F90D20FBF759FF2A2899D10020BD
:1049A000FFF7E0F8C00502D4002FE0D131E07FB37B
:1049B00048461821C0E900814021C0E9021A0901D6
:1049C00001615E48D1461438FFF7FCF81820FBF768
:1049D0003DFF2A28C5D1DFF85C8158464746C8F814
:1049E0002050C7E90449544AC0E90024019A012132
:1049F0001201C0E90229CBE904915048FFF768F899
:104A0000F86802282ED0464601285BD0E0B381E04A
:104A1000FFE729205DE700BF4FF48040FFF786F8ED
:104A2000F8B1D8F81000801B20280FD281074FEA78
:104A3000900700D07F1C002405E02868FFF7E2F80B
:104A4000641C2D1D361DBC4210D2F6E75FF0000439
:104A500055F82400FFF7D6F8641C082CF8D320354D
:104A6000203603E0DFF8D89040F21A6AD9F8340013
:104A700010EA0A0FD0D00820FFF758F828B1082014
:104A8000FFF70EF8042024E72BE00220FFF74EF892
:104A900020B10220FFF704F802201AE71020FFF7E8
:104AA00045F820B11020FEF7FBFF052011E74FF479
:104AB00000742046FFF73AF860B32046FEF7F0FF97
:104AC000072006E7012144F21A30FFF753F8B069D6
:104AD00010B930782A28FAD030782A281AD03078BD
:104AE000F7E6012140F21A30FFF744F82146284644
:104AF000FBF7E4FF0120FEF7E5FF124C2046FBF731
:104B000081FF0028FAD0B0690028E5D130782A2842
:104B1000F9D0E1E740F2FF50FEF7C2FF6846FCF72C
:104B200007F92A28AFD19DF800100729F6D00629E9
:104B3000F4D0CEE60C000020FFFF0F007805002027
:104B400000800140002000102DE9FC5F81464FF0FD
:104B50000000984617460C008DF8000006465ED00F
:104B6000B94D2A2129708246A861B949B74A2861FE
:104B7000C1E900208860C860086148610846FEF706
:104B8000A7FF0020FEF79EFF0020FEF7EBFF80014D
:104B900002D50E20BDE8FC9F6868022841D0781E2F
:104BA000B0F5006F3BD2781E074238D1384601F08D
:104BB000F9F90190A64810211438C0E9007140218C
:104BC000C0E9021A09010161FEF7FCFF1020FBF7A2
:104BD0003DFE2A28DED19C48DFF874A24FF4806B9A
:104BE0000089AAF1140A0104CAF800100D21CAF8BC
:104BF00004104021CAF808100021CAE9031B5046DE
:104C0000FEF7E0FF0D20FBF721FE2A28C2D1B8F104
:104C1000010F6ED908FB07F5B5F1007F06D32620FA
:104C2000B8E74FF400774FEA5929BCE7864F786818
:104C300018B1012801D0022828D138890104CAF806
:104C400000103721CAF804104021CAF808100021CA
:104C50007F48CAE9031B1438FEF7B4FF3720FBF77F
:104C6000F5FD2A2896D150461721C0E90081402140
:104C7000CAF8081000217648CAE9031B1438FEF769
:104C8000A1FF1720FBF7E2FD2A2883D15046192106
:104C9000C0E900914FF040090021CAE902916C4837
:104CA0004FF480611438CAF81010FEF78BFF1920FA
:104CB000FBF7CCFD2A28B3D101223C626448C7E946
:104CC00004526249C0E9001501994FF0000B090137
:104CD000C0E9021BC0E904B2B846FEF7F9FEF86865
:104CE00040F21A3202282AD04646012873D0002802
:104CF00070D099E04FF48040FEF718FFF8B1D8F873
:104D00001000801B20280BD35FF0000554F825000D
:104D1000FEF778FF6D1C082DF8D3203420360EE006
:104D200081074FEA900700D07F1C002505E020682E
:104D3000FEF768FF241D6D1C361DBD42F7D34548A4
:104D4000406B40F21A310842D4D00820FEF7EEFE44
:104D500020B10820FEF7A4FE04201BE70220FEF786
:104D6000E5FE20B10220FEF79BFE022012E7102094
:104D7000FEF7DCFE20B11020FEF792FE052009E7C9
:104D80004FF400742046FEF7D1FE20B12046FEF716
:104D900087FE0720FEE64FF48070FEF7C7FED8B30B
:104DA000D8F8040018B1012801D002283CD1594696
:104DB0000C228AE806024FF480612548CAE903B153
:104DC0001438FEF7FFFE0C20FBF740FD2A28C4D163
:104DD0002AE000E00EE0012144F21A30FEF7CAFE9C
:104DE000B06910B930782A28FAD030782A281BD038
:104DF0003078CFE601211046FEF7BCFE0120FEF719
:104E000061FE29462046FBF759FE134C2046FBF76E
:104E1000F9FD0028FAD000E006E0B0690028E4D1EE
:104E200030782A28F7D0E0E740F2FF50FEF738FE4E
:104E30006846FBF77DFF2A288FD19DF800100729CF
:104E4000F6D00629F4D0A5E60C000020FFFF0F00E5
:104E500078050020008001400020001030B587B0A8
:104E600001210820FEF710FE01218803FEF700FE55
:104E70004FF46044ADF8144018208DF8170003205B
:104E8000194D8DF8160005A92846FBF7BDFE2146F1
:104E90002846FBF70CFF0020ADF800004FF48271AC
:104EA000ADF80210ADF804000221ADF806100121A2
:104EB000ADF808104902ADF80A103821ADF80C1011
:104EC000ADF80E000720094CADF8100069462046E9
:104ED00000F0E9F90121204600F040F8FF2000F041
:104EE00007F807B030BD0000000C0140003800405A
:104EF00070B506460024114D03E0641CE4B2C82CD2
:104F00000FD80221284600F0C3F90028F5D0314619
:104F1000284600F0C6F9002405E0641CE4B2C82C61
:104F200001D9002070BD0121284600F0B1F9002808
:104F3000F3D0284600F0B3F9C0B270BD003800408D
:104F400001460548028822F03802028002880A439E
:104F50000280012100F002B80038004000290188D9
:104F600002D041F0400101E021F040010180704792
:104F700070B5084D4FF4805421462846FBF795FE46
:104F80000620FFF7B5FF21462846BDE87040FBF735
:104F90008EBE0000000C014070B50403FFF7E8FF6F
:104FA00000F0D0F80E4E4FF4805529463046FBF7FE
:104FB0007CFE2020FFF79CFFC4F30740FFF798FF1B
:104FC000C4F30720FFF794FFE0B2FFF791FF2946F3
:104FD0003046FBF76CFEBDE8704000F0B3B800004F
:104FE000000C014038B501214FF49470FEF74CFDE0
:104FF0004FF48054ADF8004010208DF803000320DA
:10500000164D8DF8020069462846FBF7FDFD214646
:105010002846FBF74CFE0420114CADF80000694611
:105020002046FBF7F1FD04212046FBF740FE8020DF
:105030000C4CADF8000069462046FBF7E5FD8021E9
:105040002046FBF734FEFFF709FF0020FFF778FF4B
:1050500000F03AF80449088038BD0000000C014017
:105060000014014000200140340000202DE9F041EF
:10507000DFF850800C4606464FF4805715463946F7
:105080004046FBF712FE0320FFF732FFC4F3074050
:10509000FFF72EFFC4F30720FFF72AFFE0B2FFF768
:1050A00027FF002405E0FF20FFF722FF3055641C96
:1050B000A4B2AC42F7D339464046BDE8F041FBF715
:1050C000F6BD0000000C014070B5114E4FF4805544
:1050D000002429463046FBF7E8FD9020FFF708FF43
:1050E0000020FFF705FF0020FFF702FF0020FFF779
:1050F000FFFEFF20FFF7FCFE44EA0024FF20FFF73D
:10510000F7FE044329463046FBF7D1FD204670BD2B
:10511000000C014070B50A4E4FF4805529463046C8
:10512000FBF7C3FD0520FFF7E3FEFF20FFF7E0FEDE
:10513000044629463046FBF7BAFD204670BD000004
:10514000000C01402DE91040FFF7E4FFC007FBD140
:1051500010BD00002DE9F05FC1F30B060F0BC6F583
:105160008054884682461546A24200D81446DFF88D
:105170007C9039038B464FF480521C48FFF776FF32
:10518000002006E0321819F80210FF2903D1401C54
:1051900080B2A042F6D3A04222D23846FFF7FCFEEE
:1051A00000204A4606E000BF1AF800108319401C90
:1051B000D15480B2A042F7D359464FF480520B48E5
:1051C00000F016F8A5420FD0281BA244A0440026E8
:1051D00085B24FF480547F1CA542CAD82C46C8E73C
:1051E000224641465046EBE7BDE8F09F900500207F
:1051F0002DE9F0410746C8B2C0F580740E46154649
:10520000A24200D814464FF48078224631463846F0
:1052100000F00EF8A54208D0281B2744264485B28A
:105220004446A542F1D82C46EFE7BDE8F0810000E6
:105230002DE9F04115460C460646FFF799FEDFF8CA
:105240004C804FF4805739464046FBF72EFD022034
:10525000FFF74EFEC4F30740FFF74AFEC4F30720F2
:10526000FFF746FEE0B2FFF743FE002404E0305DA6
:10527000FFF73EFE641CA4B2AC42F8D33946404668
:10528000FBF715FDBDE8F041FFF75CBF000C0140E6
:105290000246002012890A4200D00120704780890E
:1052A00070478181704730B502884C8802F44153C1
:1052B0000A88CD8822438C882C4322430C892243C0
:1052C0004C8922438C892243CC8922431A43028091
:1052D000828B22F400628283098A018230BD70478A
:1052E0000CB50021264801910091026842F48032F9
:1052F00002604FF4A063026802F400320092019A47
:10530000521C0192009A12B9019A9A42F3D1026892
:10531000920333D5012100911A490A6842F0100224
:105320000A600A6822F003020A600A6842F0020278
:105330000A604168416041684160416841F48061B0
:105340004160416821F47C114160416841F4E811F9
:105350004160016841F08071016001688901FCD5FC
:10536000416821F003014160416841F00201416060
:105370004168C1F381010229FAD10CBD0091FEE719
:1053800000100240002002402DE9FF4F89B01D4669
:10539000169F13460C460E460C2D01D0102D3FD102
:1053A0002A4669461846FBF785FC4FF000009FB37C
:1053B0008046EA465AE000BF1DF80870DFF8B4A046
:1053C0004FF00009380604D521460998FBF73CFE4A
:1053D0000BE02948BAF800B00188AAF8001021466D
:1053E0000998FBF731FEAAF800B07806641C070E96
:1053F000A4B2A01BA84205D109983446401C80B233
:10540000099006E009F1010000F0FF09B9F1080F69
:10541000D8D308F10100C0B28046B0EB450FCBD322
:105420000DB0BDE8F08F00BF1AF808704FF000090A
:10543000380603D521460998FBF706FE7806641C5A
:10544000070EA4B2A01BA84205D109983446401CFF
:1054500080B2099006E009F1010000F0FF09B9F1FE
:10546000080FE5D308F1010000F0FF08B8EB450F85
:10547000DAD3D5E7080000200A0000202DE9F84F14
:105480000D460AA9044691E8C008804630780028F5
:105490001ED0E81808EB020AA0EB07093278802A30
:1054A00018D9AAEB0700A04202DAE81985B24446EF
:1054B000A9450DDB3B46324629462046CDF800B0D3
:1054C000FFF762FFE01984B216F8020F0028E5D159
:1054D000BDE8F88FAAEB5700A04202DAE81985B2BE
:1054E0004446A945F4DB0D2A0CD03B46294620460C
:1054F000CDF800B0FEF748F904EB570084B216F877
:10550000010FE3E7E81985B24446761CF4E7000092
:1055100002480168491C0160704700003800002003
:105520000C48016841F00101016041680A4A1140DC
:1055300041600168094A11400160016821F480213D
:105540000160416821F4FE01416000218160FFF7A4
:10555000C7BE0000001002400000FFF8FFFFF6FE8B
:10556000704700002DE9F041DFF8808040F22551BE
:10557000404600F04BF81E4F1E4CA7F1320606F1D4
:10558000320568B1404600F060F8C1B220780128C9
:1055900020D0606800F8011B6060A84200D96660F6
:1055A0000821404600F02BF801281DD1404600F0AC
:1055B0004CF8C1B22078012811D0606800F8011BB6
:1055C0006060A84200D966604046BDE8F04108210D
:1055D00000F012B8A0683954401CA060E0E7A06851
:1055E0003954401CA060EFE7BDE8F0810044004062
:1055F000C21500203C000020C943018070470246CC
:10560000002012880A4200D00120704730B501F016
:105610001F0201240025C1F3421304FA02F2012BF8
:105620000FD0022B0FD0838A4FEA1121008813423A
:1056300004FA01F400EA040001D000B10125284673
:1056400030BD8389F0E7038AEEE78088C0F3080065
:105650007047C1F3080181807047FEE70FB4054B26
:1056600010B503A9044A029800F0CAF810BC5DF80E
:1056700014FB0000596A00088000002002E008C8FE
:10568000121F08C1002AFAD170477047002001E0BC
:1056900001C1121F002AFBD1704700002DE9FF5FF6
:1056A000DDE90220010DDDF838B0024318D044F6E0
:1056B0001050A1F2FF3141430D140F98012820D062
:1056C000A5EB0B00401C5FEA000A4FF00004474EB8
:1056D000DFF81C91A046504616D5CAF1000728E015
:1056E0000F98012443A2012808D0002100980F9BA5
:1056F000C0E90021C0E90243BDE8FF9F6FEA0B014A
:10570000F4E7CBF10000DEE7074612E0F80707D028
:105710002246334640464946FAF743FE80468946CC
:105720002246334610461946FAF73BFE04460E461B
:105730007F10002FEAD1DDE90201BAF1000F4246E5
:105740004B4602DAFAF72DFE01E0FAF7E3FF0446D2
:105750000E460022284BFAF7AFFE03D84FF0FF3079
:10576000014607E00022254B20463146FAF772FD3C
:10577000FBF73FF8102409E0002C0ADB0A22002383
:10578000FAF7D2FE019B30321A55641E50EA01022C
:10579000F2D1641C019AC4F1110314440F9A012A36
:1057A00003D0012208430DD10AE0084304D00020B1
:1057B0004FF0110B0F9080E7A3EB0B056D1E0DE072
:1057C0005B4504DD4FF0000205F1010504E003DA5A
:1057D0004FF00002A5F10105002AECD000980F99C6
:1057E000C0E90231C0E9004586E70000000024401E
:1057F0000000F03F300000000000F0430000E03FF8
:105800002DE9FF4F95B09B468946064600250FE2DD
:10581000252877D100242746F84A0121059400E085
:10582000044316F8013F203B01FA03F01042F7D180
:1058300030782A2811D06FF02F033078A0F1300291
:10584000092A16D8059A44F0020402EB820203EBFF
:1058500042021044761C0590EFE759F8042B05929C
:10586000002A03DA504244F40054059044F0020444
:10587000761C30782E2816D116F8010F44F0040457
:105880002A280DD06FF02F023078A0F13003092BB9
:1058900009D807EB870302EB4303C718761CF3E72D
:1058A00059F8047B761C30786C280FD006DC4C2825
:1058B00017D068280DD06A2814D104E0742810D0BD
:1058C0007A280FD10DE044F400140AE044F4801467
:1058D00001E044F440147278824202D104F580144D
:1058E000761C761C307866280BD013DC582877D0CD
:1058F00009DC002875D04528F6D04628F4D0472882
:105900001AD19DE118E0632835D0642879D0652844
:1059100012D195E1702873D008DC6728F1D069288E
:105920006FD06E280DD06F2806D1B5E073282CD02B
:10593000752875D0782874D05A46179990476D1CF1
:1059400075E1C4F30250022809D003280DD0D9F81C
:10595000001004280DD00D6009F1040967E1D9F8A1
:105960000010EA17C1E90052F6E7D9F800100D80DF
:10597000F2E70D70F0E719F8041B8DF80010002015
:105980008DF80100EA46012003E059F804AB4FF01E
:10599000FF3061074FF0000102D40DE008F1010172
:1059A0008846B9420FDA8045F8DB1AF8081000295A
:1059B000F4D108E008F1010188468142FADB1AF8C7
:1059C00008100029F6D105985B46A0EB0807214690
:1059D0003846179A00F094FA284400EB080507E0CF
:1059E0004DE029E10DE01AF8010B5A46179990474E
:1059F000B8F10108F7D25B4621463846179A13E101
:105A000042E00A220092C4F302524FF0000A022A36
:105A100008D059F804CB032A4FEAEC710AD00DE004
:105A200029E02AE009F1070121F00702F2E802C1AA
:105A3000914609E00FFA8CFC4FEAEC71042A03D17D
:105A40004FFA8CFC4FEAEC71002907DA0A46002174
:105A5000DCF1000C61EB02012D2202E0220504D5ED
:105A60002B228DF80420012203E0E20701D020223E
:105A7000F7E7904659E00A2102E010220DE01021DC
:105A80004FF0000A00910BE010224FF0000A44F0A2
:105A900004040827009203E008224FF0000A009255
:105AA000C4F30252022A05D059F804CB0021032A7C
:105AB00008D009E009F1070121F00702F2E802C16C
:105AC000914605E01FFA8CFC042A01D10CF0FF0C72
:105AD0004FF00008220728D5702806D0009B83F0DD
